{
  "_format": "hh-sol-artifact-1",
  "contractName": "LuckySpinFHE_KMS_Final",
  "sourceName": "contracts/LuckySpinFHE_KMS_Final.sol",
  "abi": [
    {
      "inputs": [],
      "stateMutability": "nonpayable",
      "type": "constructor"
    },
    {
      "anonymous": false,
      "inputs": [
        {
          "indexed": true,
          "internalType": "address",
          "name": "user",
          "type": "address"
        },
        {
          "indexed": false,
          "internalType": "uint256",
          "name": "timestamp",
          "type": "uint256"
        }
      ],
      "name": "CheckInCompleted",
      "type": "event"
    },
    {
      "anonymous": false,
      "inputs": [
        {
          "indexed": true,
          "internalType": "address",
          "name": "user",
          "type": "address"
        },
        {
          "indexed": false,
          "internalType": "uint256",
          "name": "amount",
          "type": "uint256"
        },
        {
          "indexed": false,
          "internalType": "bool",
          "name": "success",
          "type": "bool"
        }
      ],
      "name": "ClaimProcessed",
      "type": "event"
    },
    {
      "anonymous": false,
      "inputs": [
        {
          "indexed": true,
          "internalType": "address",
          "name": "user",
          "type": "address"
        },
        {
          "indexed": false,
          "internalType": "uint256",
          "name": "amount",
          "type": "uint256"
        }
      ],
      "name": "ClaimRequested",
      "type": "event"
    },
    {
      "anonymous": false,
      "inputs": [
        {
          "indexed": true,
          "internalType": "address",
          "name": "user",
          "type": "address"
        }
      ],
      "name": "ErrorChanged",
      "type": "event"
    },
    {
      "anonymous": false,
      "inputs": [
        {
          "indexed": true,
          "internalType": "address",
          "name": "user",
          "type": "address"
        },
        {
          "indexed": false,
          "internalType": "uint256",
          "name": "amount",
          "type": "uint256"
        }
      ],
      "name": "EthClaimed",
      "type": "event"
    },
    {
      "anonymous": false,
      "inputs": [
        {
          "indexed": true,
          "internalType": "address",
          "name": "user",
          "type": "address"
        },
        {
          "indexed": false,
          "internalType": "uint256",
          "name": "amount",
          "type": "uint256"
        }
      ],
      "name": "GmTokensBought",
      "type": "event"
    },
    {
      "anonymous": false,
      "inputs": [
        {
          "indexed": true,
          "internalType": "address",
          "name": "user",
          "type": "address"
        }
      ],
      "name": "GmTokensBoughtFHE",
      "type": "event"
    },
    {
      "anonymous": false,
      "inputs": [
        {
          "indexed": true,
          "internalType": "address",
          "name": "user",
          "type": "address"
        },
        {
          "indexed": false,
          "internalType": "uint256",
          "name": "score",
          "type": "uint256"
        }
      ],
      "name": "ScorePublished",
      "type": "event"
    },
    {
      "anonymous": false,
      "inputs": [
        {
          "indexed": true,
          "internalType": "address",
          "name": "user",
          "type": "address"
        }
      ],
      "name": "ScoreUnpublished",
      "type": "event"
    },
    {
      "anonymous": false,
      "inputs": [
        {
          "indexed": true,
          "internalType": "address",
          "name": "user",
          "type": "address"
        },
        {
          "indexed": false,
          "internalType": "uint256",
          "name": "newTotalScore",
          "type": "uint256"
        },
        {
          "indexed": false,
          "internalType": "uint256",
          "name": "delta",
          "type": "uint256"
        }
      ],
      "name": "ScoreUpdated",
      "type": "event"
    },
    {
      "anonymous": false,
      "inputs": [
        {
          "indexed": true,
          "internalType": "address",
          "name": "user",
          "type": "address"
        },
        {
          "indexed": false,
          "internalType": "uint64",
          "name": "count",
          "type": "uint64"
        }
      ],
      "name": "SpinBoughtWithGm",
      "type": "event"
    },
    {
      "anonymous": false,
      "inputs": [
        {
          "indexed": true,
          "internalType": "address",
          "name": "user",
          "type": "address"
        },
        {
          "indexed": false,
          "internalType": "string",
          "name": "result",
          "type": "string"
        }
      ],
      "name": "SpinCompleted",
      "type": "event"
    },
    {
      "anonymous": false,
      "inputs": [
        {
          "indexed": true,
          "internalType": "address",
          "name": "user",
          "type": "address"
        },
        {
          "indexed": false,
          "internalType": "uint8",
          "name": "slot",
          "type": "uint8"
        },
        {
          "indexed": false,
          "internalType": "uint256",
          "name": "prizeWei",
          "type": "uint256"
        },
        {
          "indexed": false,
          "internalType": "uint64",
          "name": "gmDelta",
          "type": "uint64"
        }
      ],
      "name": "SpinOutcome",
      "type": "event"
    },
    {
      "anonymous": false,
      "inputs": [
        {
          "indexed": true,
          "internalType": "address",
          "name": "user",
          "type": "address"
        },
        {
          "indexed": false,
          "internalType": "uint256",
          "name": "version",
          "type": "uint256"
        }
      ],
      "name": "UserStateChanged",
      "type": "event"
    },
    {
      "inputs": [],
      "name": "GM_TOKEN_RATE",
      "outputs": [
        {
          "internalType": "uint256",
          "name": "",
          "type": "uint256"
        }
      ],
      "stateMutability": "view",
      "type": "function"
    },
    {
      "inputs": [],
      "name": "SECONDS_PER_DAY",
      "outputs": [
        {
          "internalType": "uint256",
          "name": "",
          "type": "uint256"
        }
      ],
      "stateMutability": "view",
      "type": "function"
    },
    {
      "inputs": [],
      "name": "buyGmTokens",
      "outputs": [],
      "stateMutability": "payable",
      "type": "function"
    },
    {
      "inputs": [
        {
          "internalType": "externalEuint64",
          "name": "encryptedAmount",
          "type": "bytes32"
        },
        {
          "internalType": "bytes",
          "name": "proof",
          "type": "bytes"
        }
      ],
      "name": "buyGmTokensFHE",
      "outputs": [],
      "stateMutability": "payable",
      "type": "function"
    },
    {
      "inputs": [],
      "name": "buySpinWithGm",
      "outputs": [],
      "stateMutability": "nonpayable",
      "type": "function"
    },
    {
      "inputs": [
        {
          "internalType": "uint64",
          "name": "count",
          "type": "uint64"
        }
      ],
      "name": "buySpinWithGmBatch",
      "outputs": [],
      "stateMutability": "nonpayable",
      "type": "function"
    },
    {
      "inputs": [],
      "name": "checkIn",
      "outputs": [],
      "stateMutability": "nonpayable",
      "type": "function"
    },
    {
      "inputs": [
        {
          "internalType": "address",
          "name": "",
          "type": "address"
        }
      ],
      "name": "claimRequestAmount",
      "outputs": [
        {
          "internalType": "uint256",
          "name": "",
          "type": "uint256"
        }
      ],
      "stateMutability": "view",
      "type": "function"
    },
    {
      "inputs": [
        {
          "internalType": "address",
          "name": "",
          "type": "address"
        }
      ],
      "name": "claimRequestTimestamp",
      "outputs": [
        {
          "internalType": "uint256",
          "name": "",
          "type": "uint256"
        }
      ],
      "stateMutability": "view",
      "type": "function"
    },
    {
      "inputs": [],
      "name": "dailyGm",
      "outputs": [],
      "stateMutability": "nonpayable",
      "type": "function"
    },
    {
      "inputs": [],
      "name": "emergencyWithdraw",
      "outputs": [],
      "stateMutability": "nonpayable",
      "type": "function"
    },
    {
      "inputs": [
        {
          "internalType": "address",
          "name": "user",
          "type": "address"
        }
      ],
      "name": "getClaimRequest",
      "outputs": [
        {
          "internalType": "uint256",
          "name": "amount",
          "type": "uint256"
        },
        {
          "internalType": "uint256",
          "name": "timestamp",
          "type": "uint256"
        }
      ],
      "stateMutability": "view",
      "type": "function"
    },
    {
      "inputs": [],
      "name": "getContractBalance",
      "outputs": [
        {
          "internalType": "uint256",
          "name": "",
          "type": "uint256"
        }
      ],
      "stateMutability": "view",
      "type": "function"
    },
    {
      "inputs": [
        {
          "internalType": "address",
          "name": "user",
          "type": "address"
        }
      ],
      "name": "getEncryptedLastSlot",
      "outputs": [
        {
          "internalType": "euint64",
          "name": "",
          "type": "bytes32"
        }
      ],
      "stateMutability": "view",
      "type": "function"
    },
    {
      "inputs": [
        {
          "internalType": "address",
          "name": "user",
          "type": "address"
        }
      ],
      "name": "getEncryptedPendingEthWei",
      "outputs": [
        {
          "internalType": "euint64",
          "name": "",
          "type": "bytes32"
        }
      ],
      "stateMutability": "view",
      "type": "function"
    },
    {
      "inputs": [
        {
          "internalType": "address",
          "name": "user",
          "type": "address"
        }
      ],
      "name": "getEncryptedScore",
      "outputs": [
        {
          "internalType": "euint64",
          "name": "",
          "type": "bytes32"
        }
      ],
      "stateMutability": "view",
      "type": "function"
    },
    {
      "inputs": [
        {
          "internalType": "address",
          "name": "user",
          "type": "address"
        }
      ],
      "name": "getEncryptedUserBundle",
      "outputs": [
        {
          "internalType": "euint64",
          "name": "spins",
          "type": "bytes32"
        },
        {
          "internalType": "euint64",
          "name": "gm",
          "type": "bytes32"
        },
        {
          "internalType": "euint64",
          "name": "pendingEthWei",
          "type": "bytes32"
        },
        {
          "internalType": "euint64",
          "name": "lastSlot",
          "type": "bytes32"
        },
        {
          "internalType": "euint64",
          "name": "score",
          "type": "bytes32"
        }
      ],
      "stateMutability": "view",
      "type": "function"
    },
    {
      "inputs": [
        {
          "internalType": "address",
          "name": "user",
          "type": "address"
        }
      ],
      "name": "getLastError",
      "outputs": [
        {
          "internalType": "euint8",
          "name": "code",
          "type": "bytes32"
        },
        {
          "internalType": "uint256",
          "name": "timestamp",
          "type": "uint256"
        }
      ],
      "stateMutability": "view",
      "type": "function"
    },
    {
      "inputs": [
        {
          "internalType": "address",
          "name": "user",
          "type": "address"
        }
      ],
      "name": "getPublicScore",
      "outputs": [
        {
          "internalType": "uint256",
          "name": "",
          "type": "uint256"
        }
      ],
      "stateMutability": "view",
      "type": "function"
    },
    {
      "inputs": [
        {
          "internalType": "uint256",
          "name": "offset",
          "type": "uint256"
        },
        {
          "internalType": "uint256",
          "name": "limit",
          "type": "uint256"
        }
      ],
      "name": "getPublishedRange",
      "outputs": [
        {
          "internalType": "address[]",
          "name": "addrs",
          "type": "address[]"
        },
        {
          "internalType": "uint256[]",
          "name": "scores",
          "type": "uint256[]"
        }
      ],
      "stateMutability": "view",
      "type": "function"
    },
    {
      "inputs": [
        {
          "internalType": "address",
          "name": "user",
          "type": "address"
        }
      ],
      "name": "getUserGmBalance",
      "outputs": [
        {
          "internalType": "euint64",
          "name": "",
          "type": "bytes32"
        }
      ],
      "stateMutability": "view",
      "type": "function"
    },
    {
      "inputs": [
        {
          "internalType": "address",
          "name": "user",
          "type": "address"
        }
      ],
      "name": "getUserRewards",
      "outputs": [
        {
          "internalType": "euint256",
          "name": "",
          "type": "bytes32"
        }
      ],
      "stateMutability": "view",
      "type": "function"
    },
    {
      "inputs": [
        {
          "internalType": "address",
          "name": "user",
          "type": "address"
        }
      ],
      "name": "getUserSpins",
      "outputs": [
        {
          "internalType": "euint64",
          "name": "",
          "type": "bytes32"
        }
      ],
      "stateMutability": "view",
      "type": "function"
    },
    {
      "inputs": [
        {
          "internalType": "address",
          "name": "user",
          "type": "address"
        }
      ],
      "name": "hasPendingClaim",
      "outputs": [
        {
          "internalType": "bool",
          "name": "",
          "type": "bool"
        }
      ],
      "stateMutability": "view",
      "type": "function"
    },
    {
      "inputs": [
        {
          "internalType": "address",
          "name": "user",
          "type": "address"
        }
      ],
      "name": "isScorePublished",
      "outputs": [
        {
          "internalType": "bool",
          "name": "",
          "type": "bool"
        }
      ],
      "stateMutability": "view",
      "type": "function"
    },
    {
      "inputs": [
        {
          "internalType": "address",
          "name": "",
          "type": "address"
        }
      ],
      "name": "lastCheckInDay",
      "outputs": [
        {
          "internalType": "uint256",
          "name": "",
          "type": "uint256"
        }
      ],
      "stateMutability": "view",
      "type": "function"
    },
    {
      "inputs": [
        {
          "internalType": "address",
          "name": "",
          "type": "address"
        }
      ],
      "name": "lastCheckInTime",
      "outputs": [
        {
          "internalType": "uint256",
          "name": "",
          "type": "uint256"
        }
      ],
      "stateMutability": "view",
      "type": "function"
    },
    {
      "inputs": [
        {
          "internalType": "address",
          "name": "",
          "type": "address"
        }
      ],
      "name": "lastOutcomeCommit",
      "outputs": [
        {
          "internalType": "bytes32",
          "name": "",
          "type": "bytes32"
        }
      ],
      "stateMutability": "view",
      "type": "function"
    },
    {
      "inputs": [
        {
          "internalType": "address",
          "name": "",
          "type": "address"
        }
      ],
      "name": "lastOutcomeNonce",
      "outputs": [
        {
          "internalType": "uint256",
          "name": "",
          "type": "uint256"
        }
      ],
      "stateMutability": "view",
      "type": "function"
    },
    {
      "inputs": [
        {
          "internalType": "address",
          "name": "user",
          "type": "address"
        },
        {
          "internalType": "uint256",
          "name": "decryptedAmount",
          "type": "uint256"
        }
      ],
      "name": "onClaimDecrypted",
      "outputs": [],
      "stateMutability": "nonpayable",
      "type": "function"
    },
    {
      "inputs": [],
      "name": "owner",
      "outputs": [
        {
          "internalType": "address",
          "name": "",
          "type": "address"
        }
      ],
      "stateMutability": "view",
      "type": "function"
    },
    {
      "inputs": [
        {
          "internalType": "address",
          "name": "",
          "type": "address"
        }
      ],
      "name": "pendingClaimRequests",
      "outputs": [
        {
          "internalType": "bool",
          "name": "",
          "type": "bool"
        }
      ],
      "stateMutability": "view",
      "type": "function"
    },
    {
      "inputs": [
        {
          "internalType": "address",
          "name": "",
          "type": "address"
        }
      ],
      "name": "pendingSettlement",
      "outputs": [
        {
          "internalType": "bool",
          "name": "",
          "type": "bool"
        }
      ],
      "stateMutability": "view",
      "type": "function"
    },
    {
      "inputs": [
        {
          "internalType": "uint256",
          "name": "score",
          "type": "uint256"
        }
      ],
      "name": "publishScore",
      "outputs": [],
      "stateMutability": "nonpayable",
      "type": "function"
    },
    {
      "inputs": [],
      "name": "reinit",
      "outputs": [],
      "stateMutability": "nonpayable",
      "type": "function"
    },
    {
      "inputs": [
        {
          "internalType": "uint256",
          "name": "amountWei",
          "type": "uint256"
        }
      ],
      "name": "requestClaimETH",
      "outputs": [],
      "stateMutability": "nonpayable",
      "type": "function"
    },
    {
      "inputs": [
        {
          "internalType": "uint8",
          "name": "slot",
          "type": "uint8"
        }
      ],
      "name": "settlePrize",
      "outputs": [],
      "stateMutability": "nonpayable",
      "type": "function"
    },
    {
      "inputs": [],
      "name": "spin",
      "outputs": [],
      "stateMutability": "nonpayable",
      "type": "function"
    },
    {
      "inputs": [],
      "name": "spinLite",
      "outputs": [],
      "stateMutability": "nonpayable",
      "type": "function"
    },
    {
      "inputs": [
        {
          "internalType": "address",
          "name": "",
          "type": "address"
        }
      ],
      "name": "spinNonce",
      "outputs": [
        {
          "internalType": "uint256",
          "name": "",
          "type": "uint256"
        }
      ],
      "stateMutability": "view",
      "type": "function"
    },
    {
      "inputs": [
        {
          "internalType": "address",
          "name": "",
          "type": "address"
        }
      ],
      "name": "stateVersion",
      "outputs": [
        {
          "internalType": "uint256",
          "name": "",
          "type": "uint256"
        }
      ],
      "stateMutability": "view",
      "type": "function"
    },
    {
      "inputs": [],
      "name": "unpublishScore",
      "outputs": [],
      "stateMutability": "nonpayable",
      "type": "function"
    },
    {
      "stateMutability": "payable",
      "type": "receive"
    }
  ],
  "bytecode": "0x608060409080825234620002b55762000018816200037d565b5f81525f606060209282848201528285820152015281516200003a816200037d565b73687820221192c5b662b25367f70076a37bc79b6c80825273848b0066793bcc60346da1f49049357399b8d5959081848401526060731364cbbf2cdf5032c47d8226a6f6fbd2afcdacac93848782015273bc91f3dad1a5f19f8390c400196e58073b6a0bc4918291015260018060a01b0319917fed8d60e34876f751cc8b014c560745351147d9de11b9347c854e881b128ea60090838254161790557fed8d60e34876f751cc8b014c560745351147d9de11b9347c854e881b128ea6019383838654161785557fed8d60e34876f751cc8b014c560745351147d9de11b9347c854e881b128ea60290838254161790557fed8d60e34876f751cc8b014c560745351147d9de11b9347c854e881b128ea60390828254161790557f5ea69329017273582817d320489fbd94f775580e90c092699ca6f3d12fdf7d007333347831500f1e73f0cccbb95c9f86b94d7b1123828254161790553390600a541617600a5583519083826044815f639cd07acb60e01b95868352816004840152600260248401525af1801562000373575f9062000340575b5f9250600f5560018060a01b03928484825416604488518096819387835260016004840152600260248401525af1801562000303575f906200030d575b5f93506010558484825416604488518096819387835260026004840152600260248401525af18015620003035785935f91620002cb575b50936044915f9560115554169186519485938492835260036004840152600260248401525af1918215620002c1575f9262000289575b505060125551612d419081620003d28239f35b90809250813d8311620002b9575b620002a38183620003ad565b81010312620002b557515f8062000276565b5f80fd5b503d62000297565b83513d5f823e3d90fd5b8481939592503d8311620002fb575b620002e68183620003ad565b81010312620002b55751849290604462000240565b503d620002da565b86513d5f823e3d90fd5b508483813d831162000338575b620003268183620003ad565b81010312620002b5575f925162000209565b503d6200031a565b508382813d83116200036b575b620003598183620003ad565b81010312620002b5575f9151620001cc565b503d6200034d565b85513d5f823e3d90fd5b608081019081106001600160401b038211176200039957604052565b634e487b7160e01b5f52604160045260245ffd5b601f909101601f19168101906001600160401b03821190821017620003995760405256fe608060409080825260049182361015610022575b5050503615610020575f80fd5b005b5f915f3560e01c908163078b0fb7146120985750806307c77ccb1461205c57806311df504514611f5b578063183ff085146114b257806319a9026514611f2457806324a13fc014611eed57806324a573ca14611eb657806324cfbaa614611e735780632fed418414611e375780633136a3b914611cbe578063328c81a314611c87578063426120cd146118d3578063488905151461189c5780634efaca6514611831578063638b709a146117fb57806366fbe733146115c65780636bb92a82146115aa5780636f9fb98a146115905780637224b7471461155957806374f0314f1461153c57806375f36197146115055780637ed00b2d146114ed5780638489302e146114b75780638d96e689146114b25780638da5cb5b1461148b57806394453fae14611454578063a72c6b22146113b2578063ae0ce3701461137b578063c482ceaf146112b1578063c483da221461127a578063c6a59d671461123e578063c6ed044114610f08578063caf0ca4714610eb3578063cf1ae5b114610e3f578063cf94ba0f14610bd1578063d678475414610b9b578063db2e21bc14610b05578063df426b1014610acf578063e52e9144146109e9578063e644924b146109ae578063ee581d7c1461071a5763f0acd7d5036100135734610716578160031936011261071657610211336125b0565b338252602090828252610228818420543090612c15565b33835282825261023b3382852054612c15565b3383526001938483526102513083862054612c15565b3384528483526102643383862054612c15565b33845260059081845261027a3084872054612c15565b33855281845261028d3384872054612c15565b3385528084526102a03084872054612c15565b3385528084526102b33384872054612c15565b3385526003918285526102c93085882054612c15565b3386528285526102dc3385882054612c15565b33865285855283862054966103286103166102fe6102f8612b78565b8b612805565b9961031061030a612b29565b826128a3565b8b612ca8565b33895288885280878a20553090612c15565b33875286865261033b3386892054612c15565b61034b600f54601254908a612ca8565b855190610357826120fa565b815281878201428152338a52600e8952878a2092518355519101558451337f9c458d4af2e97b032bd1b235a5af0367e4aa9e385b6b4a8ba12d83ee8804659e8980a2448188019081524260208201523360601b6bffffffffffffffffffffffff19166040820152436054820152906103dc81607484015b03601f19810183528261215a565b5190208160648206105f146106c7575086977f91878448ef87c3db4aeb83e60e7deb1240ecae3fd04975ec93547398514cb4ed9697935b846105bc57503389528288528589205461045592506104439161043d610437612ad3565b836126e4565b90612ca8565b33895282885280868a20553090612c15565b3387528086526104683385892054612c15565b8181036105915760ff905b81855193168352878784015216838201527f5c45296401ff630a9654379c00459a908687b562d88c8999c349cb22894b6fcb60603392a281517ff5e3f4fb3e1b45909c1ea49137114634cea181228f751e1754e5ef8365a165bc33918061050c8160609060208152600e60208201527f5370696e20636f6d706c6574656400000000000000000000000000000000000060408201520190565b0390a23385528084526105223083872054612c15565b3385528084526105353383872054612c15565b3385528084526105656105538387205461054d612bc6565b906126e4565b33875282865280848820553090612c15565b33855283526105773382862054612c15565b60648151938585528401523392a261058e336127bc565b80f35b50600681036105a35760ff600f610473565b600781036105b45760ff601e610473565b60ff86610473565b8483036105fa5750338952828852858920546105e292506104439161043d610437612a7e565b3387528086526105f53385892054612c15565b610468565b600285101590816106bc575b5015610614575b5050610468565b8383036106635761063861064a91338b52838a52878b20549061043d610437612a2f565b338a5282895280878b20553090612c15565b338852865261065c3385892054612c15565b5f8061060d565b6006840361069f5761063861068891338b52838a52878b20549061043d6104376129e0565b338852865261069a3385892054612c15565b61065c565b61063861068891338b52838a52878b20549061043d610437612991565b90508411155f610606565b6064600791040697818901809911610703577f91878448ef87c3db4aeb83e60e7deb1240ecae3fd04975ec93547398514cb4ed96979893610413565b602488601186634e487b7160e01b835252fd5b5080fd5b5091346107165782600319360112610716576107346120cc565b90331561096b576001600160a01b03821690818452602090600b825260ff86862054161561092a57828552600c8252858520549081602435106108e857838652600b835286862060ff198154169055600c83528587812055600d83528587812055600583526107a7878720543090612c15565b838652600583526107bb8588882054612c15565b838652600583526107f86107e5888820546107df67ffffffffffffffff8616612941565b906128a3565b8588526005855280898920553090612c15565b8386526005835261080c8588882054612c15565b8580808085895af13d156108e3573d61082481612594565b906108318a51928361215a565b815287853d92013e5b156108a15750907f0d7976053781e071cecf47e898ad2a6dc87621ca33734e96eb4b92453319e8c99186847f0297329099dae5ca4aa6944c9566214495dd85b044885e9f5a04afa95d548bd18261058e999a51858152600187820152a251908152a26127bc565b6064908388519162461bcd60e51b8352820152601360248201527f455448207472616e73666572206661696c6564000000000000000000000000006044820152fd5b61083a565b6064908388519162461bcd60e51b8352820152601d60248201527f496e73756666696369656e742064656372797074656420616d6f756e740000006044820152fd5b60649186519162461bcd60e51b8352820152601060248201527f4e6f2070656e64696e6720636c61696d000000000000000000000000000000006044820152fd5b606490602085519162461bcd60e51b8352820152600860248201527f4f6e6c79204b4d530000000000000000000000000000000000000000000000006044820152fd5b50346107165760203660031901126107165760ff816020936001600160a01b036109d66120cc565b168152600b855220541690519015158152f35b50829034610acb576020366003190112610acb578135913384526014602052818420805460ff811615610a51575b50505060136020528181842055519081527fa8004ebd362175ae54576800b471d2ee0e957a999351c9beec953da1fc20fd4060203392a280f35b60ff191660011790556015549068010000000000000000821015610ab85750610a83816001610aa193016015556122c9565b33906001600160a01b038084549260031b9316831b921b1916179055565b601554338452601660205281842055838080610a17565b846041602492634e487b7160e01b835252fd5b8280fd5b503461071657602036600319011261071657806020926001600160a01b03610af56120cc565b1681526001845220549051908152f35b508234610acb5782600319360112610acb576001600160a01b03600a541690813303610b58575082808080934790828215610b4f575bf115610b45575080f35b51903d90823e3d90fd5b506108fc610b3b565b606490602084519162461bcd60e51b8352820152600a60248201527f4f6e6c79206f776e6572000000000000000000000000000000000000000000006044820152fd5b503461071657602036600319011261071657806020926001600160a01b03610bc16120cc565b168152600c845220549051908152f35b5080600319360112610dea5760243567ffffffffffffffff93848211610dea5736602383011215610dea5781810135948511610dea573660248684010111610dea575f602492610c20336125b0565b610c2987612594565b96610c368651988961215a565b80885280602095869301838a0137870101526001600160a01b0382815f80516020612d1583398151915254169685519788917f196d0b9b000000000000000000000000000000000000000000000000000000008352853586840152336024840152608060448401528051908160848501525f5b828110610e275750505f60a48483838383968401015260056064830152601f801991011681010301925af1958615610e1d575f96610dee575b507fed8d60e34876f751cc8b014c560745351147d9de11b9347c854e881b128ea6005416803b15610dea5783517f3e395cec0000000000000000000000000000000000000000000000000000000081529182018681523360208201525f91839182908490829060400103925af18015610de057610dc6575b50600190610d8a610d78610d989596338852848452858820546126e4565b33875283835280858820553090612c15565b338552523390832054612c15565b337f5eb22460289ffca9a6ef15bf87f9445e6c3d405ec0b5e00e29f466970fbdbaa78280a261058e336127bc565b610d98935090610dd760019261212a565b5f935090610d5a565b83513d5f823e3d90fd5b5f80fd5b9095508281813d8311610e16575b610e06818361215a565b81010312610dea5751945f610ce2565b503d610dfc565b84513d5f823e3d90fd5b8181018601518c820160a4015288958c955001610ca9565b508234610dea576020366003190112610dea573590610e5d336125b0565b335f52600b602052805f20600160ff19825416179055600c60205281815f2055600d60205242815f2055519081527f71431efdffe03bc79c5607c1cf67764f4cf3e224fb5e5dfc04178260aa0b932260203392a2005b5034610dea576020366003190112610dea576001600160a01b03610ed56120cc565b165f52600e602052805f2060208251610eed816120fa565b60018354938483520154918291015282519182526020820152f35b838234610dea575f366003190112610dea57610f23336125b0565b335f526020915f8352610f3a825f20543090612c15565b335f525f8352610f4d33835f2054612c15565b335f525f8352610f91610f7f835f2054610f6e610f68612b78565b82612805565b61043d610f79612b29565b836128a3565b335f525f855280845f20553090612c15565b335f525f8352610fa433835f2054612c15565b8151448482019081524260208201523360601b6bffffffffffffffffffffffff1916604082015243605482015290919082607482010392610fed601f199485810183528261215a565b519020600160648206101561121857505f5b600581036111ec5760ff6005915b169060ff8551918383525f8884015216858201527f5c45296401ff630a9654379c00459a908687b562d88c8999c349cb22894b6fcb60603392a283517ff5e3f4fb3e1b45909c1ea49137114634cea181228f751e1754e5ef8365a165bc3391806110a98160609060208152600e60208201527f5370696e20636f6d706c6574656400000000000000000000000000000000000060408201520190565b0390a2335f5260178552835f20549261112e85519182611122898201958833308992604994917fff00000000000000000000000000000000000000000000000000000000000000936bffffffffffffffffffffffff19809260601b16865260601b166014850152602884015260f81b1660488201520190565b0390810183528261215a565b519020335f5260188552835f20556019845281835f2055601a8452825f20600160ff19825416179055600182018092116111d957506111d092600391335f5260178252835f205581815261118530845f2054612c15565b335f5281815261119833845f2054612c15565b335f528181526111c26111b0845f205461054d612bc6565b335f5283835280855f20553090612c15565b335f525233905f2054612c15565b610020336127bc565b601190634e487b7160e01b5f525260245ffd5b600681036111ff5760ff600f5b9161100d565b600781036112105760ff601e6111f9565b60ff5f6111f9565b606460079104066001810180911115610fff57601182634e487b7160e01b5f525260245ffd5b5034610dea576020366003190112610dea576020906001600160a01b036112636120cc565b165f526014825260ff815f20541690519015158152f35b5034610dea576020366003190112610dea576020906001600160a01b0361129f6120cc565b165f5260078252805f20549051908152f35b838234610dea575f366003190112610dea5760056111d092335f52602090600182526112e1845f20543090612c15565b335f52600182526112f533855f2054612c15565b335f525f825261130830855f2054612c15565b335f525f825261131b33855f2054612c15565b335f526003825261132f30855f2054612c15565b335f526003825261134333855f2054612c15565b335f5280825261135630855f2054612c15565b335f52815261136833845f2054612c15565b335f528181526111c230845f2054612c15565b5034610dea576020366003190112610dea576020906001600160a01b036113a06120cc565b165f5260138252805f20549051908152f35b508234610dea5781600319360112610dea576113d29060243590356124c4565b8251838152825193810184905292839260209160608501918301905f5b81811061143457505050838103828501528180845192838152019301915f5b82811061141d57505050500390f35b83518552869550938101939281019260010161140e565b82516001600160a01b0316845287965092840192918401916001016113ef565b5034610dea576020366003190112610dea576020906001600160a01b036114796120cc565b165f5260188252805f20549051908152f35b5034610dea575f366003190112610dea576020906001600160a01b03600a54169051908152f35b6120e2565b838234610dea576020366003190112610dea576020916001600160a01b036114dd6120cc565b165f528252805f20549051908152f35b34610dea575f366003190112610dea57610020612312565b5034610dea576020366003190112610dea576020906001600160a01b0361152a6120cc565b165f5260058252805f20549051908152f35b5034610dea575f366003190112610dea5760209051620151808152f35b5034610dea576020366003190112610dea576020906001600160a01b0361157e6120cc565b165f52600d8252805f20549051908152f35b5034610dea575f366003190112610dea5751478152602090f35b5034610dea575f366003190112610dea57602090516103e88152f35b508234610dea575f366003190112610dea576115e1336125b0565b335f5260209160018352805f2054916001600160a01b035f80516020612d15833981519152918183541691845187816044815f639cd07acb60e01b98898352600989840152600560248401525af19081156117f15790889392915f916117c0575b50935f604492611654600a978b612805565b975416885196879586948552840152600560248401525af1908115610de0575f9161178f575b50906116ca6116b7856116b1611730957f613edc44c859ae57f4e2745ce37ddc4990be3f919e697b4dd07a5205f81b88b2986128a3565b84612ca8565b335f526001875280855f20553090612c15565b335f52600185526116de33845f2054612c15565b335f525f85526117116116ff845f20546116b16116f9612b29565b826126e4565b335f525f875280855f20553090612c15565b335f525f855261172433845f2054612c15565b600f5460105491612ca8565b81519061173c826120fa565b81526001848201428152335f52600e8652835f2092518355519101555191337f9c458d4af2e97b032bd1b235a5af0367e4aa9e385b6b4a8ba12d83ee8804659e5f80a2600183523392a2610020336127bc565b9190508482813d83116117b9575b6117a7818361215a565b81010312610dea5790516116ca61167a565b503d61179d565b84819592503d83116117ea575b6117d7818361215a565b81010312610dea5791518792905f611642565b503d6117cd565b86513d5f823e3d90fd5b5034610dea576020366003190112610dea576020906001600160a01b036118206120cc565b165f525f8252805f20549051908152f35b508234610dea57602080600319360112610dea5760a0926001600160a01b036118586120cc565b165f525f8252805f20549260018352815f20549160058452805f2054918452805f20549260038552815f205494825196875286015284015260608301526080820152f35b5034610dea576020366003190112610dea576020906001600160a01b036118c16120cc565b165f5260178252805f20549051908152f35b838234610dea57602080600319360112610dea57823560ff811690818103610dea576118fe336125b0565b335f52601a835260ff845f20541615611c4557335f52601983526103ce611987855f20549286519283918783019533308892604994917fff00000000000000000000000000000000000000000000000000000000000000936bffffffffffffffffffffffff19809260601b16865260601b166014850152602884015260f81b1660488201520190565b519020335f5260188352835f205403611c0357905f93611a53611a4184601895158814611a8457338852600585526119c230888a2054612c15565b338852600585526119d633888a2054612c15565b33885260058552611a026119ef888a205461054d612ad3565b338a526005875280898b20553090612c15565b33885260058552611a1633888a2054612c15565b338852838552611a2930888a2054612c15565b338852838552611a3c33888a2054612c15565b612941565b33875282845280868820553090612c15565b3385528152611a653384862054612c15565b338452601a815282842060ff19815416905552812055610020336127bc565b60018082148914611aea575033885260058552611aa430888a2054612c15565b33885260058552611ab833888a2054612c15565b33885260058552611ad16119ef888a205461054d612a7e565b33885260058552611ae533888a2054612c15565b611a16565b600582148914611b5657338952808652611b0730898b2054612c15565b338952808652611b1a33898b2054612c15565b338952808652611b44611b32898b205461054d612a2f565b338b52828852808a8c20553090612c15565b3389528552611ae533888a2054612c15565b600682148914611b9e57338952808652611b7330898b2054612c15565b338952808652611b8633898b2054612c15565b338952808652611b44611b32898b205461054d6129e0565b60078214611bad575b50611a16565b338952808652611bc030898b2054612c15565b338952808652611bd333898b2054612c15565b338952808652611beb611b32898b205461054d612991565b3389528552611bfd33888a2054612c15565b88611ba7565b5060649291519162461bcd60e51b8352820152601260248201527f496e76616c696420736574746c656d656e7400000000000000000000000000006044820152fd5b6064858486519162461bcd60e51b8352820152601060248201527f4e6f2070656e64696e67207072697a65000000000000000000000000000000006044820152fd5b5034610dea576020366003190112610dea576020906001600160a01b03611cac6120cc565b165f5260098252805f20549051908152f35b838234610dea57602080600319360112610dea5782359167ffffffffffffffff808416809403610dea57611cf1336125b0565b83151580611e2c575b15611dea57335f5260018352815f205490600a8502958187169687036111d9575f198701908282116111d9575095611d8a611d77611dc7946116b161030a611d71611d6b611db5987f613edc44c859ae57f4e2745ce37ddc4990be3f919e697b4dd07a5205f81b88b29d9e16612941565b84612805565b95612941565b335f526001875280865f20553090612c15565b335f5260018552611d9e33855f2054612c15565b335f525f8552835f20549061043d61043789612941565b335f525f845280835f20553090612c15565b335f525f8252611dda33825f2054612c15565b519283523392a2610020336127bc565b6064858484519162461bcd60e51b8352820152600d60248201527f696e76616c696420636f756e74000000000000000000000000000000000000006044820152fd5b506032841115611cfa565b5034610dea576020366003190112610dea576020906001600160a01b03611e5c6120cc565b165f52601a825260ff815f20541690519015158152f35b5034610dea576020366003190112610dea576001600160a01b03611e956120cc565b165f52600c602052805f2054600d602052815f205482519182526020820152f35b5034610dea576020366003190112610dea576020906001600160a01b03611edb6120cc565b165f5260038252805f20549051908152f35b5034610dea576020366003190112610dea576020906001600160a01b03611f126120cc565b165f5260198252805f20549051908152f35b5034610dea576020366003190112610dea576020906001600160a01b03611f496120cc565b165f5260068252805f20549051908152f35b50825f366003190112610dea57611f71336125b0565b341561201a576103e89081340291348304036111d95750670de0b6b3a7640000900490611fd2611fbe611fad67ffffffffffffffff8516612941565b335f526001602052835f20546126e4565b335f52600160205280835f20553090612c15565b335f526001602052611fe733825f2054612c15565b519081527f2df747ea49445e73b60e268d884585144855c4f022c8d6c7aad44708a9c83b2260203392a2610020336127bc565b6020606492519162461bcd60e51b8352820152600d60248201527f4d7573742073656e6420455448000000000000000000000000000000000000006044820152fd5b5034610dea576020366003190112610dea576020906001600160a01b036120816120cc565b165f52600b825260ff815f20541690519015158152f35b905034610dea576020366003190112610dea576020916001600160a01b036120be6120cc565b165f52600283525f20548152f35b600435906001600160a01b0382168203610dea57565b34610dea575f366003190112610dea5761002061217c565b6040810190811067ffffffffffffffff82111761211657604052565b634e487b7160e01b5f52604160045260245ffd5b67ffffffffffffffff811161211657604052565b6020810190811067ffffffffffffffff82111761211657604052565b90601f8019910116810190811067ffffffffffffffff82111761211657604052565b612185336125b0565b620151804204335f5260209060078252604090815f205481111561227457907f81a25468fabedbbaa9179ae90960445ca6426a7aeae439b462bb74f0a89ab3759160078452815f20556006835242815f20555f83526121fe6121ec825f205461054d612b29565b335f525f855280835f20553090612c15565b335f525f835261221133825f2054612c15565b600f54815190612220826120fa565b81526001848201428152335f52600e8652835f2092518355519101555191337f9c458d4af2e97b032bd1b235a5af0367e4aa9e385b6b4a8ba12d83ee8804659e5f80a24283523392a2612272336127bc565b565b509060019060115492805193612289856120fa565b8452600e82850192428452335f52525f209251835551910155337f9c458d4af2e97b032bd1b235a5af0367e4aa9e385b6b4a8ba12d83ee8804659e5f80a2565b6015548110156122fe5760155f527f55f448fdea98c4d29eb340757ef0a66cd03dbb9538908a6a81d96026b71ec47501905f90565b634e487b7160e01b5f52603260045260245ffd5b335f52601460205260405f20805460ff8116156124555760ff1916905560136020525f6040812055601660205260405f205480612372575b50337f1c6b0c6e774ba78fff6fe943c64e4e530cb52e0ddf625dd35cb80a0f2bd150a05f80a2565b6015548082036123d2575b505060155480156123be575f1901612394816122c9565b6001600160a01b0382549160031b1b19169055601555335f5260166020525f60408120555f61234a565b634e487b7160e01b5f52603160045260245ffd5b5f1990808201908111612441576123f06001600160a01b03916122c9565b90549060031b1c16908201828111612441578161240f61242e926122c9565b9091906001600160a01b038084549260031b9316831b921b1916179055565b5f52601660205260405f20555f8061237d565b634e487b7160e01b5f52601160045260245ffd5b5050565b67ffffffffffffffff81116121165760051b60200190565b9061247b82612459565b612488604051918261215a565b8281528092612499601f1991612459565b0190602036910137565b9190820180921161244157565b80518210156122fe5760209160051b010190565b90916015549283831015612568576124dc90836124a3565b92808411612560575b50818303928311612441576124f983612471565b9261250381612471565b925f5b82811061251257505050565b806001600160a01b0361252f61252a600194866124a3565b6122c9565b90549060031b1c1680612542838a6124b0565b525f52601360205260405f205461255982886124b0565b5201612506565b92505f6124e5565b50915050604051906125798261213e565b5f8252604051916125898361213e565b5f83525f3681379190565b67ffffffffffffffff811161211657601f01601f191660200190565b6001600160a01b03811690815f5260206008815260409260ff845f2054166126de576126cc6008936125f66125e3612b78565b845f526001865280885f20553090612c15565b825f526001845261260a81875f2054612c15565b612627612615612b78565b845f525f865280885f20553090612c15565b825f525f845261263a81875f2054612c15565b612658612645612b78565b845f526003865280885f20553090612c15565b825f526003845261266c81875f2054612c15565b61268a612677612b78565b845f526004865280885f20553090612c15565b825f526004845261269e81875f2054612c15565b6126bc6126a9612b78565b845f526005865280885f20553090612c15565b825f5260058452855f2054612c15565b5f52525f20600160ff19825416179055565b50505050565b9081156127ac575b801561279a575b60209060646001600160a01b035f80516020612d158339815191525416935f60405195869485937f117b2f38000000000000000000000000000000000000000000000000000000008552600485015260248401528160448401525af190811561278f575f91612760575090565b90506020813d602011612787575b8161277b6020938361215a565b81010312610dea575190565b3d915061276e565b6040513d5f823e3d90fd5b5060206127a5612b78565b90506126f3565b90506127b6612b78565b906126ec565b6001600160a01b0316805f5260096020527faab469e68c1a9950d09bf98d5dbd05ceb4e8e5d3fc891afa9be48ff1911ad4a3602060405f206001815401809155604051908152a2565b908115612893575b8015612881575b60209060646001600160a01b035f80516020612d158339815191525416935f60405195869485937f85362ee7000000000000000000000000000000000000000000000000000000008552600485015260248401528160448401525af190811561278f575f91612760575090565b50602061288c612b78565b9050612814565b905061289d612b78565b9061280d565b908115612931575b801561291f575b60209060646001600160a01b035f80516020612d158339815191525416935f60405195869485937f182b6d98000000000000000000000000000000000000000000000000000000008552600485015260248401528160448401525af190811561278f575f91612760575090565b50602061292a612b78565b90506128b2565b905061293b612b78565b906128ab565b60205f9160446001600160a01b035f80516020612d158339815191525416916040519485938492639cd07acb60e01b84526004840152600560248401525af190811561278f575f91612760575090565b5f60206001600160a01b035f80516020612d158339815191525416604460405180948193639cd07acb60e01b8352601e6004840152600560248401525af190811561278f575f91612760575090565b5f60206001600160a01b035f80516020612d158339815191525416604460405180948193639cd07acb60e01b8352600f6004840152600560248401525af190811561278f575f91612760575090565b5f60206001600160a01b035f80516020612d158339815191525416604460405180948193639cd07acb60e01b835260056004840152600560248401525af190811561278f575f91612760575090565b5f60206001600160a01b035f80516020612d158339815191525416604460405180948193639cd07acb60e01b8352662386f26fc100006004840152600560248401525af190811561278f575f91612760575090565b5f60206001600160a01b035f80516020612d158339815191525416604460405180948193639cd07acb60e01b835267016345785d8a00006004840152600560248401525af190811561278f575f91612760575090565b5f60206001600160a01b035f80516020612d158339815191525416604460405180948193639cd07acb60e01b835260016004840152600560248401525af190811561278f575f91612760575090565b5f60206001600160a01b035f80516020612d158339815191525416604460405180948193639cd07acb60e01b8352816004840152600560248401525af190811561278f575f91612760575090565b5f60206001600160a01b035f80516020612d158339815191525416604460405180948193639cd07acb60e01b835260646004840152600560248401525af190811561278f575f91612760575090565b6001600160a01b037fed8d60e34876f751cc8b014c560745351147d9de11b9347c854e881b128ea600541691823b15610dea576040517fb9496b6200000000000000000000000000000000000000000000000000000000815260048101929092526001600160a01b03166024820152905f908290604490829084905af1801561278f57612c9f5750565b6122729061212a565b9060646020925f6001600160a01b035f80516020612d15833981519152541660405196879586947f7702dcff0000000000000000000000000000000000000000000000000000000086526004860152602485015260448401525af190811561278f575f9161276057509056feed8d60e34876f751cc8b014c560745351147d9de11b9347c854e881b128ea601a164736f6c6343000818000a",
  "linkReferences": {},
  "deployedLinkReferences": {}
}